:0805F30002080000020A0000EA
:03000B0002053BB0
:10053B00C0E0C0D0758CFC758A0FD3E5099410E52B
:10054B0008648094A74008B29275080075090005ED
:0C055B0009E50970020508D0D0D0E0329C
:03001B0002056774
:10056700C0E0C0D0758DE0758B00D3E50B9410E526
:100577000A648094A74008B291750A00750B0005BC
:0C0587000BE50B7002050AD0D0D0E0326A
:1005B0005389F0538EF7758CFC758A0FD2A9D28CB3
:0105C0002218
:1005C10053890F538EEF758DE0758B00D2ABD28EB0
:0105D1002207
:100593007589FF75B10075B20075B30075B4007548
:0D05A300AC0075AD001205B0D2AF80FE2295
:1003F6008F0F8E0E8D0D8C0C538EF7438901D28C88
:100406007F007E007D007C00AB0FAA0EA90DA80C14
:10041600C31200EC602D758A7E758CFF308DFDC28F
:100426008DAF0FAE0EAD0DAC0C7BFF7AFF79FF786A
:10043600FFEF2BF50FEE3AF50EED39F50DEC38F52D
:060446000C80BDC28C22F7
:10044C008F138E128D118C10538EF7438901D28C21
:10045C007F007E007D007C00AB13AA12A911A810AE
:10046C00C31200EC602D758ACA758CFA308DFDC2F2
:10047C008DAF13AE12AD11AC107BFF7AFF79FF7804
:10048C00FFEF2BF513EE3AF512ED39F511EC38F5CB
:06049C001080BDC28C229D
:1004A2008F178E168D158C14538EEF438910D28EB2
:1004B2007F007E007D007C00AB17AA16A915A81448
:1004C200C31200EC602D758BEA758DCB308FFDC2A7
:1004D2008FAF17AE16AD15AC147BFF7AFF79FF789C
:1004E200FFEF2BF517EE3AF516ED39F515EC38F569
:0604F2001480BDC28E2241
:10039D008F1B8E1A8D198C1853C9BF53C9DF43C9D2
:1003AD0010D2CA7F007E007D007C00AB1BAA1AA96B
:1003BD0019A818C31200EC602D75CC3075CDF8302E
:1003CD00CFFDC2CFAF1BAE1AAD19AC187BFF7AFFB4
:1003DD0079FF78FFEF2BF51BEE3AF51AED39F5198C
:0903ED00EC38F51880BDC2CA22EB
:1002DD008F1F8E1E8D1D8C1C75C40743C4087F0097
:1002ED007E007D007C00AB1FAA1EA91DA81CC31299
:1002FD0000EC603875C52C75C6CFE5C45410FF7E73
:10030D0000EF64104E70F353C4EFAF1FAE1EAD1D62
:10031D00AC1C7BFF7AFF79FF78FFEF2BF51FEE3AD0
:10032D00F51EED39F51DEC38F51C80B253C4F722DE
:10033D008F248E238D228C2175C40743C4087F0022
:10034D007E007D007C00AB24AA23A922A821C31224
:10035D0000EC603875C5D875C6FFE5C45410FF7E36
:10036D0000EF64104E70F353C4EFAF24AE23AD22F3
:10037D00AC217BFF7AFF79FF78FFEF2BF524EE3A66
:10038D00F523ED39F522EC38F52180B253C4F7226F
:1004F8008F288E278D268C2553B1BF53B2BF53B199
:100508007F53B27F759850438920438780438E106C
:1005180053C4DFAB28AA27A926A8257F407E427DA1
:100528000F7C0012005AEF04FFEFF404F58DD28E11
:03053800D2992233
:1001BC008F2C8E2B8D2A8C2953B1BF53B2BF53B1C8
:1001CC007F53B27F75985043878053C4F843C42043
:1001DC00AB2CAA2BA92AA8297F407E427D0F7C003C
:1001EC0012005AA804A905AA06AB07C374FF9BFF0B
:1001FC0074FF9AFEE499FDE498FC78081200FD8FD8
:10020C00C6AB2CAA2BA92AA8297F407E427D0F7C45
:10021C000012005AA804A905AA06AB07C374FF9BD9
:10022C00FF74FF9AFEE499FDE498FCEF54FFFFEE97
:10023C005400FEED5400FDEC5400FC8FC543C40883
:03024C00D2992222
:0A000E003098FD859931C298AF319A
:0100180022C5
:0B05D2008F32C2998532993099FD22CA
:10024F008F308E2F8D2E8C2D53B1FB53B2FB53B3AA
:10025F00BF53B4BF75F85075C40853C4DFAB30AA91
:10026F002FA92EA82D7F407E427D0F7C0012005AB1
:10027F00A804A905AA06AB07C374FF9BFF74FF9AD6
:10028F00FEE499FDE498FC78081200FD8FC6AB30B0
:10029F00AA2FA92EA82D7F407E427D0F7C00120031
:1002AF005AA804A905AA06AB07C374FF9BFF74FFE6
:1002BF009AFEE499FDE498FCEF54FFFFEE5400FE24
:0E02CF00ED5400FDEC5400FC8FC543C4082222
:0A05DD0030F8FD859A33C2F8AF3301
:0105E70022F1
:0B05E8008F34C2F985349A30F9FD22EF
:03000000020110EA
:1001100075C7AA75C75575FD5A75C7AA75C75575B0
:10012000FDA5787FE4F6D8FD9000007FFF7E03E414
:0C013000F0A3DFFCDEFA758134020177D9
:10013C00020593E493A3F8E493A34003F68001F241
:10014C0008DFF48029E493A3F85407240CC8C333C4
:10015C00C4540F4420C8834004F456800146F6DF93
:10016C00E4800B01020408102040809005F3E47E2B
:10017C00019360BCA3FF543F30E509541FFEE49388
:10018C00A360010ECF54C025E060A840B8E493A34F
:10019C00FAE493A3F8E493A3C8C582C8CAC583CA7A
:1001AC00F0A3C8C582C8CAC583CADFE9DEE780BE32
:0105FB0000FF
:10001E0075F008758200EF2FFFEE33FECD33CDCC99
:10002E0033CCC58233C5829BED9AEC99E58298401C
:10003E000CF582EE9BFEED9AFDEC99FC0FD5F0D6F9
:10004E00E4CEFBE4CDFAE4CCF9A88222B800C1B923
:10005E000059BA002DEC8BF084CFCECDFCE5F0CB61
:10006E00F97818EF2FFFEE33FEED33FDEC33FCEB9A
:10007E0033FB10D703994004EB99FB0FD8E5E4F955
:10008E00FA227818EF2FFFEE33FEED33FDEC33FC42
:10009E00C933C910D7059BE99A4007EC9BFCE99A36
:1000AE00F90FD8E0E4C9FAE4CCFB2275F010EF2F7B
:1000BE00FFEE33FEED33FDCC33CCC833C810D7077B
:1000CE009BEC9AE899400AED9BFDEC9AFCE899F8B6
:0E00DE000FD5F0DAE4CDFBE4CCFAE4C8F92249
:1000EC00EB9FF5F0EA9E42F0E99D42F0E89C45F06A
:0100FC0022E1
:1000FD00E8600FECC313FCED13FDEE13FEEF13FFE1
:03010D00D8F12204
:00000001FF
