:0402EA00021E0000F0
:030003000202E313
:0702E300751E00751F0132BA
:1000B200E4F508F50953B3FB43B404439B02D2A809
:1000C200D2AFE51F451E60FAE4F508F509C2927F3A
:1000D200647E007D007C0012023CD2927F647E002E
:1000E2007D007C0012023C0509E50970020508C387
:1000F200940AE5086480948040D3E4F51EF51F80DD
:01010200C13B
:1001F1008F118E108D0F8C0E538EF7438901D28C87
:10020100E4FFFEFDFCAB11AA10A90FA80EC3120258
:10021100D26025758A7E758CFF308DFDC28DE5110A
:1002210024FFF511E51034FFF510E50F34FFF50F4C
:0B023100E50E34FFF50E80C8C28C22E1
:10023C008F0D8E0C8D0B8C0A538EF7438901D28C4B
:10024C00E4FFFEFDFCAB0DAA0CA90BA80AC312021D
:10025C00D26025758ACA758CFA308DFDC28DE50D7C
:10026C0024FFF50DE50C34FFF50CE50B34FFF50B15
:0B027C00E50A34FFF50A80C8C28C229E
:100287008F158E148D138C12538EEF438910D28ED7
:10029700E4FFFEFDFCAB15AA14A913A812C31202B2
:1002A700D26025758BEA758DCB308FFDC28FE51532
:1002B70024FFF515E51434FFF514E51334FFF513A2
:0B02C700E51234FFF51280C8C28E2241
:1001A3008F198E188D178C1653C9BF53C9DF43C9D6
:1001B30010D2CAE4FFFEFDFCAB19AA18A917A816B2
:1001C300C31202D2602575CC3075CDF830CFFDC295
:1001D300CFE51924FFF519E51834FFF518E51734B1
:0E01E300FFF517E51634FFF51680C8C2CA22D4
:100103008F1D8E1C8D1B8C1A75C40743C408E4FF16
:10011300FEFDFCAB1DAA1CA91BA81AC31202D260C8
:100123002B75C52C75C6CFE5C45410641070F853F5
:10013300C4EFE51D24FFF51DE51C34FFF51CE51B8D
:1001430034FFF51BE51A34FFF51A80C253C4F722B6
:100153008F248E238D228C2175C40743C408E4FFAA
:10016300FEFDFCAB24AA23A922A821C31202D2605C
:100173002B75C5D875C6FFE5C45410641070F853C9
:10018300C4EFE52424FFF524E52334FFF523E5221A
:1001930034FFF522E52134FFF52180C253C4F72251
:03000000020006F5
:1000060075C7AA75C75575FD5A75C7AA75C75575BB
:10001600FDA5787FE4F6D8FD9000007FFF7E03E41F
:0C002600F0A3DFFCDEFA75812402006DFF
:100032000200B2E493A3F8E493A34003F68001F232
:1000420008DFF48029E493A3F85407240CC8C333CF
:10005200C4540F4420C8834004F456800146F6DF9E
:10006200E4800B01020408102040809002EAE47E42
:10007200019360BCA3FF543F30E509541FFEE49393
:10008200A360010ECF54C025E060A840B8E493A35A
:10009200FAE493A3F8E493A3C8C582C8CAC583CA85
:1000A200F0A3C8C582C8CAC583CADFE9DEE780BE3D
:0102EE00000F
:1002D200EB9FF5F0EA9E42F0E99D42F0E89C45F082
:0102E20022F9
:00000001FF
