:0404F20002290000DB
:1004C9005389F0538EF7758CFC758A0FD2A9D28C9B
:0104D9002200
:03000B000204816B
:10048100C0E0C0D0758CFC758A0FD3E52A9410E5C5
:1004910029648094A74008B292752900752A000545
:0C04A1002AE52A70020529D0D0D0E032F4
:1004AD0043B18053B27F53B3FB43B40453B1BF4345
:0C04BD00B2407589FF1204C9D2AF80FE66
:100367008F0B8E0A8D098C08538EF7438901D28C27
:10037700E4FFFEFDFCAB0BAA0AA909A808C31200FB
:10038700DC6025758A7E758CFF308DFDC28DE50B8F
:1003970024FFF50BE50A34FFF50AE50934FFF509F3
:0B03A700E50834FFF50880C8C28C2276
:1003B2008F0F8E0E8D0D8C0C538EF7438901D28CCC
:1003C200E4FFFEFDFCAB0FAA0EA90DA80CC31200A0
:1003D200DC6025758ACA758CFA308DFDC28DE50FF9
:1003E20024FFF50FE50E34FFF50EE50D34FFF50D94
:0B03F200E50C34FFF50C80C8C28C2223
:1003FD008F138E128D118C10538EEF438910D28E68
:10040D00E4FFFEFDFCAB13AA12A911A810C3120044
:10041D00DC6025758BEA758DCB308FFDC28FE513B2
:10042D0024FFF513E51234FFF512E51134FFF51134
:0B043D00E51034FFF51080C8C28E22CD
:100319008F178E168D158C1453C9BF53C9DF43C966
:1003290010D2CAE4FFFEFDFCAB17AA16A915A81442
:10033900C31200DC602575CC3075CDF830CFFDC215
:10034900CFE51724FFF517E51634FFF516E5153443
:0E035900FFF515E51434FFF51480C8C2CA2262
:100279008F1B8E1A8D198C1875C40743C408E4FFA7
:10028900FEFDFCAB1BAA1AA919A818C31200DC6051
:100299002B75C52C75C6CFE5C45410641070F8537E
:1002A900C4EFE51B24FFF51BE51A34FFF51AE51920
:1002B90034FFF519E51834FFF51880C253C4F72245
:1002C9008F1F8E1E8D1D8C1C75C40743C408E4FF47
:1002D900FEFDFCAB1FAA1EA91DA81CC31200DC60F1
:1002E9002B75C5D875C6FFE5C45410641070F85352
:1002F900C4EFE51F24FFF51FE51E34FFF51EE51DBC
:1003090034FFF51DE51C34FFF51C80C253C4F722E8
:1004480053B1BF53B2BF53B17F53B27F7598504376
:100458008920438780438E1053C4DFAB07AA06A9BF
:1004680005A8047F407E427D0F7C0012004AEF04FD
:09047800F404F58DD28ED2992214
:1001AC008F248E238D228C2153B1BF53B2BF53B1F8
:1001BC007F53B27F75985043878053C4F843C42053
:1001CC00AB24AA23A922A8217F407E427D0F7C006C
:1001DC0012004AC374FF9FFF74FF9EFEE49DFDE472
:1001EC009CFC78081200ED8FC6AB24AA23A922A888
:1001FC00217F407E427D0F7C0012004AC374FF9F1A
:09020C00FF8FC543C408D29922FA
:070003003098FDAF99C2988F
:01000A0022D3
:0804DA00C2998F993099FD22AF
:100215008F288E278D268C2553B1FB53B2FB53B304
:10022500BF53B4BF75F85075C40853C4DFAB28AAD3
:1002350027A926A8257F407E427D0F7C0012004A13
:10024500C374FF9FFF74FF9EFEE49DFDE49CFC7854
:10025500081200ED8FC6AB28AA27A926A8257F403E
:100265007E427D0F7C0012004AC374FF9FFF8FC53D
:0402750043C4082254
:0704E20030F8FDAF9AC2F8EB
:0104E90022F0
:0804EA00C2F98F9A30F9FD22DE
:03000000020100FA
:1001000075C7AA75C75575FD5A75C7AA75C75575C0
:10011000FDA5787FE4F6D8FD9000007FFF7E03E424
:0C012000F0A3DFFCDEFA75812A02016703
:10012C000204ADE493A3F8E493A34003F68001F238
:10013C0008DFF48029E493A3F85407240CC8C333D4
:10014C00C4540F4420C8834004F456800146F6DFA3
:10015C00E4800B01020408102040809004F2E47E3D
:10016C00019360BCA3FF543F30E509541FFEE49398
:10017C00A360010ECF54C025E060A840B8E493A35F
:10018C00FAE493A3F8E493A3C8C582C8CAC583CA8A
:10019C00F0A3C8C582C8CAC583CADFE9DEE780BE42
:0104F6000005
:10000E0075F008758200EF2FFFEE33FECD33CDCCA9
:10001E0033CCC58233C5829BED9AEC99E58298402C
:10002E000CF582EE9BFEED9AFDEC99FC0FD5F0D609
:10003E00E4CEFBE4CDFAE4CCF9A88222B800C1B933
:10004E000059BA002DEC8BF084CFCECDFCE5F0CB71
:10005E00F97818EF2FFFEE33FEED33FDEC33FCEBAA
:10006E0033FB10D703994004EB99FB0FD8E5E4F965
:10007E00FA227818EF2FFFEE33FEED33FDEC33FC52
:10008E00C933C910D7059BE99A4007EC9BFCE99A46
:10009E00F90FD8E0E4C9FAE4CCFB2275F010EF2F8B
:1000AE00FFEE33FEED33FDCC33CCC833C810D7078B
:1000BE009BEC9AE899400AED9BFDEC9AFCE899F8C6
:0E00CE000FD5F0DAE4CDFBE4CCFAE4C8F92259
:1000DC00EB9FF5F0EA9E42F0E99D42F0E89C45F07A
:0100EC0022F1
:1000ED00E8600FECC313FCED13FDEE13FEEF13FFF1
:0300FD00D8F12215
:00000001FF
